{"contracts/DocumentRegistry.sol":{"DocumentRegistry":{"abi":[{"anonymous":false,"inputs":[{"indexed":true,"internalType":"uint256","name":"activityId","type":"uint256"},{"indexed":false,"internalType":"string","name":"activityType","type":"string"},{"indexed":false,"internalType":"string","name":"docHash","type":"string"},{"indexed":true,"internalType":"address","name":"uploader","type":"address"},{"indexed":false,"internalType":"uint256","name":"timestamp","type":"uint256"}],"name":"ActivityStored","type":"event"},{"anonymous":false,"inputs":[{"indexed":true,"internalType":"uint256","name":"docId","type":"uint256"},{"indexed":false,"internalType":"string","name":"docType","type":"string"},{"indexed":false,"internalType":"string","name":"docHash","type":"string"},{"indexed":true,"internalType":"address","name":"uploader","type":"address"},{"indexed":false,"internalType":"uint256","name":"timestamp","type":"uint256"}],"name":"DocumentStored","type":"event"},{"inputs":[{"internalType":"uint256","name":"_activityId","type":"uint256"}],"name":"getActivity","outputs":[{"internalType":"string","name":"activityType","type":"string"},{"internalType":"string","name":"docHash","type":"string"},{"internalType":"string","name":"metadata","type":"string"},{"internalType":"address","name":"uploader","type":"address"},{"internalType":"uint256","name":"timestamp","type":"uint256"}],"stateMutability":"view","type":"function"},{"inputs":[],"name":"getActivityCount","outputs":[{"internalType":"uint256","name":"","type":"uint256"}],"stateMutability":"view","type":"function"},{"inputs":[{"internalType":"uint256","name":"_docId","type":"uint256"}],"name":"getDocument","outputs":[{"internalType":"string","name":"docType","type":"string"},{"internalType":"string","name":"docHash","type":"string"},{"internalType":"string","name":"metadata","type":"string"},{"internalType":"address","name":"uploader","type":"address"},{"internalType":"uint256","name":"timestamp","type":"uint256"}],"stateMutability":"view","type":"function"},{"inputs":[],"name":"getDocumentCount","outputs":[{"internalType":"uint256","name":"","type":"uint256"}],"stateMutability":"view","type":"function"},{"inputs":[{"internalType":"string","name":"_docHash","type":"string"},{"internalType":"string","name":"_metadata","type":"string"}],"name":"recordImplementation","outputs":[{"internalType":"uint256","name":"","type":"uint256"}],"stateMutability":"nonpayable","type":"function"},{"inputs":[{"internalType":"string","name":"_docHash","type":"string"},{"internalType":"string","name":"_metadata","type":"string"}],"name":"recordMonitoring","outputs":[{"internalType":"uint256","name":"","type":"uint256"}],"stateMutability":"nonpayable","type":"function"},{"inputs":[{"internalType":"string","name":"_docHash","type":"string"},{"internalType":"string","name":"_metadata","type":"string"}],"name":"recordPlanning","outputs":[{"internalType":"uint256","name":"","type":"uint256"}],"stateMutability":"nonpayable","type":"function"},{"inputs":[{"internalType":"string","name":"_docHash","type":"string"},{"internalType":"string","name":"_metadata","type":"string"}],"name":"recordVerification","outputs":[{"internalType":"uint256","name":"","type":"uint256"}],"stateMutability":"nonpayable","type":"function"},{"inputs":[{"internalType":"string","name":"_activityType","type":"string"},{"internalType":"string","name":"_docHash","type":"string"},{"internalType":"string","name":"_metadata","type":"string"}],"name":"storeActivity","outputs":[{"internalType":"uint256","name":"","type":"uint256"}],"stateMutability":"nonpayable","type":"function"},{"inputs":[{"internalType":"string","name":"_docType","type":"string"},{"internalType":"string","name":"_docHash","type":"string"},{"internalType":"string","name":"_metadata","type":"string"}],"name":"storeDocument","outputs":[{"internalType":"uint256","name":"","type":"uint256"}],"stateMutability":"nonpayable","type":"function"}],"evm":{"bytecode":{"linkReferences":{},"object":"608060405234801561001057600080fd5b5061131c806100206000396000f3fe608060405234801561001057600080fd5b506004361061009e5760003560e01c8063839ab29911610066578063839ab299146101735780638a723575146101a3578063922635d8146101d3578063bdb4214114610207578063f2d893e4146102375761009e565b80631727fddb146100a357806322ce30bf146100d357806330532362146100f15780633d1c2273146101215780633f9b250a1461013f575b600080fd5b6100bd60048036038101906100b89190610c0c565b610267565b6040516100ca9190610c9d565b60405180910390f35b6100db6102b1565b6040516100e89190610c9d565b60405180910390f35b61010b60048036038101906101069190610cb8565b6102bb565b6040516101189190610c9d565b60405180910390f35b6101296102d1565b6040516101369190610c9d565b60405180910390f35b61015960048036038101906101549190610d8b565b6102db565b60405161016a959493929190610e78565b60405180910390f35b61018d60048036038101906101889190610c0c565b6102ff565b60405161019a9190610c9d565b60405180910390f35b6101bd60048036038101906101b89190610c0c565b610349565b6040516101ca9190610c9d565b60405180910390f35b6101ed60048036038101906101e89190610d8b565b610393565b6040516101fe959493929190610e78565b60405180910390f35b610221600480360381019061021c9190610c0c565b610650565b60405161022e9190610c9d565b60405180910390f35b610251600480360381019061024c9190610cb8565b61069a565b60405161025e9190610c9d565b60405180910390f35b60006102a96040518060400160405280600881526020017f506c616e6e696e670000000000000000000000000000000000000000000000008152508484610950565b905092915050565b6000600154905090565b60006102c8848484610950565b90509392505050565b6000600154905090565b60608060606000806102ec86610393565b9450945094509450945091939590929450565b60006103416040518060400160405280600a81526020017f4d6f6e69746f72696e67000000000000000000000000000000000000000000008152508484610950565b905092915050565b600061038b6040518060400160405280600c81526020017f566572696669636174696f6e00000000000000000000000000000000000000008152508484610950565b905092915050565b60608060606000806000861180156103ad57506001548611155b6103ec576040517f08c379a00000000000000000000000000000000000000000000000000000000081526004016103e390610f2c565b60405180910390fd5b60008060008881526020019081526020016000206040518060a001604052908160008201805461041b90610f7b565b80601f016020809104026020016040519081016040528092919081815260200182805461044790610f7b565b80156104945780601f1061046957610100808354040283529160200191610494565b820191906000526020600020905b81548152906001019060200180831161047757829003601f168201915b505050505081526020016001820180546104ad90610f7b565b80601f01602080910402602001604051908101604052809291908181526020018280546104d990610f7b565b80156105265780601f106104fb57610100808354040283529160200191610526565b820191906000526020600020905b81548152906001019060200180831161050957829003601f168201915b5050505050815260200160028201805461053f90610f7b565b80601f016020809104026020016040519081016040528092919081815260200182805461056b90610f7b565b80156105b85780601f1061058d576101008083540402835291602001916105b8565b820191906000526020600020905b81548152906001019060200180831161059b57829003601f168201915b505050505081526020016003820160009054906101000a900473ffffffffffffffffffffffffffffffffffffffff1673ffffffffffffffffffffffffffffffffffffffff1673ffffffffffffffffffffffffffffffffffffffff168152602001600482015481525050905080600001518160200151826040015183606001518460800151955095509550955095505091939590929450565b60006106926040518060400160405280600e81526020017f496d706c656d656e746174696f6e0000000000000000000000000000000000008152508484610950565b905092915050565b6000806106a88585856102bb565b905060008060008381526020019081526020016000206040518060a00160405290816000820180546106d990610f7b565b80601f016020809104026020016040519081016040528092919081815260200182805461070590610f7b565b80156107525780601f1061072757610100808354040283529160200191610752565b820191906000526020600020905b81548152906001019060200180831161073557829003601f168201915b5050505050815260200160018201805461076b90610f7b565b80601f016020809104026020016040519081016040528092919081815260200182805461079790610f7b565b80156107e45780601f106107b9576101008083540402835291602001916107e4565b820191906000526020600020905b8154815290600101906020018083116107c757829003601f168201915b505050505081526020016002820180546107fd90610f7b565b80601f016020809104026020016040519081016040528092919081815260200182805461082990610f7b565b80156108765780601f1061084b57610100808354040283529160200191610876565b820191906000526020600020905b81548152906001019060200180831161085957829003601f168201915b505050505081526020016003820160009054906101000a900473ffffffffffffffffffffffffffffffffffffffff1673ffffffffffffffffffffffffffffffffffffffff1673ffffffffffffffffffffffffffffffffffffffff1681526020016004820154815250509050806060015173ffffffffffffffffffffffffffffffffffffffff16827ff649d7d9d2f86602b811728f937e408ca2dc52f7ac5bf46acaefbef486f1415d83600001518460200151856080015160405161093c93929190610fac565b60405180910390a381925050509392505050565b60006001600081548092919061096590611020565b91905055506040518060a001604052808581526020018481526020018381526020013373ffffffffffffffffffffffffffffffffffffffff16815260200142815250600080600154815260200190815260200160002060008201518160000190816109d09190611214565b5060208201518160010190816109e69190611214565b5060408201518160020190816109fc9190611214565b5060608201518160030160006101000a81548173ffffffffffffffffffffffffffffffffffffffff021916908373ffffffffffffffffffffffffffffffffffffffff160217905550608082015181600401559050503373ffffffffffffffffffffffffffffffffffffffff166001547f1a963893abca512d4509f228c9acd4b12dc3c62d22cb6603d7ba3b41300d529c868642604051610a9e93929190610fac565b60405180910390a360015490509392505050565b6000604051905090565b600080fd5b600080fd5b600080fd5b600080fd5b6000601f19601f8301169050919050565b7f4e487b7100000000000000000000000000000000000000000000000000000000600052604160045260246000fd5b610b1982610ad0565b810181811067ffffffffffffffff82111715610b3857610b37610ae1565b5b80604052505050565b6000610b4b610ab2565b9050610b578282610b10565b919050565b600067ffffffffffffffff821115610b7757610b76610ae1565b5b610b8082610ad0565b9050602081019050919050565b82818337600083830152505050565b6000610baf610baa84610b5c565b610b41565b905082815260208101848484011115610bcb57610bca610acb565b5b610bd6848285610b8d565b509392505050565b600082601f830112610bf357610bf2610ac6565b5b8135610c03848260208601610b9c565b91505092915050565b60008060408385031215610c2357610c22610abc565b5b600083013567ffffffffffffffff811115610c4157610c40610ac1565b5b610c4d85828601610bde565b925050602083013567ffffffffffffffff811115610c6e57610c6d610ac1565b5b610c7a85828601610bde565b9150509250929050565b6000819050919050565b610c9781610c84565b82525050565b6000602082019050610cb26000830184610c8e565b92915050565b600080600060608486031215610cd157610cd0610abc565b5b600084013567ffffffffffffffff811115610cef57610cee610ac1565b5b610cfb86828701610bde565b935050602084013567ffffffffffffffff811115610d1c57610d1b610ac1565b5b610d2886828701610bde565b925050604084013567ffffffffffffffff811115610d4957610d48610ac1565b5b610d5586828701610bde565b9150509250925092565b610d6881610c84565b8114610d7357600080fd5b50565b600081359050610d8581610d5f565b92915050565b600060208284031215610da157610da0610abc565b5b6000610daf84828501610d76565b91505092915050565b600081519050919050565b600082825260208201905092915050565b60005b83811015610df2578082015181840152602081019050610dd7565b60008484015250505050565b6000610e0982610db8565b610e138185610dc3565b9350610e23818560208601610dd4565b610e2c81610ad0565b840191505092915050565b600073ffffffffffffffffffffffffffffffffffffffff82169050919050565b6000610e6282610e37565b9050919050565b610e7281610e57565b82525050565b600060a0820190508181036000830152610e928188610dfe565b90508181036020830152610ea68187610dfe565b90508181036040830152610eba8186610dfe565b9050610ec96060830185610e69565b610ed66080830184610c8e565b9695505050505050565b7f496e76616c696420616374697669747920494400000000000000000000000000600082015250565b6000610f16601383610dc3565b9150610f2182610ee0565b602082019050919050565b60006020820190508181036000830152610f4581610f09565b9050919050565b7f4e487b7100000000000000000000000000000000000000000000000000000000600052602260045260246000fd5b60006002820490506001821680610f9357607f821691505b602082108103610fa657610fa5610f4c565b5b50919050565b60006060820190508181036000830152610fc68186610dfe565b90508181036020830152610fda8185610dfe565b9050610fe96040830184610c8e565b949350505050565b7f4e487b7100000000000000000000000000000000000000000000000000000000600052601160045260246000fd5b600061102b82610c84565b91507fffffffffffffffffffffffffffffffffffffffffffffffffffffffffffffffff820361105d5761105c610ff1565b5b600182019050919050565b60008190508160005260206000209050919050565b60006020601f8301049050919050565b600082821b905092915050565b6000600883026110ca7fffffffffffffffffffffffffffffffffffffffffffffffffffffffffffffffff8261108d565b6110d4868361108d565b95508019841693508086168417925050509392505050565b6000819050919050565b600061111161110c61110784610c84565b6110ec565b610c84565b9050919050565b6000819050919050565b61112b836110f6565b61113f61113782611118565b84845461109a565b825550505050565b600090565b611154611147565b61115f818484611122565b505050565b5b818110156111835761117860008261114c565b600181019050611165565b5050565b601f8211156111c85761119981611068565b6111a28461107d565b810160208510156111b1578190505b6111c56111bd8561107d565b830182611164565b50505b505050565b600082821c905092915050565b60006111eb600019846008026111cd565b1980831691505092915050565b600061120483836111da565b9150826002028217905092915050565b61121d82610db8565b67ffffffffffffffff81111561123657611235610ae1565b5b6112408254610f7b565b61124b828285611187565b600060209050601f83116001811461127e576000841561126c578287015190505b61127685826111f8565b8655506112de565b601f19841661128c86611068565b60005b828110156112b45784890151825560018201915060208501945060208101905061128f565b868310156112d157848901516112cd601f8916826111da565b8355505b6001600288020188555050505b50505050505056fea2646970667358221220cb6757777798b0fb48cfea067ff7abed8a77f58a51955513299b495fbabeb60364736f6c63430008130033","opcodes":"PUSH1 0x80 PUSH1 0x40 MSTORE CALLVALUE DUP1 ISZERO PUSH2 0x10 JUMPI PUSH1 0x0 DUP1 REVERT JUMPDEST POP PUSH2 0x131C DUP1 PUSH2 0x20 PUSH1 0x0 CODECOPY PUSH1 0x0 RETURN INVALID PUSH1 0x80 PUSH1 0x40 MSTORE CALLVALUE DUP1 ISZERO PUSH2 0x10 JUMPI PUSH1 0x0 DUP1 REVERT JUMPDEST POP PUSH1 0x4 CALLDATASIZE LT PUSH2 0x9E JUMPI PUSH1 0x0 CALLDATALOAD PUSH1 0xE0 SHR DUP1 PUSH4 0x839AB299 GT PUSH2 0x66 JUMPI DUP1 PUSH4 0x839AB299 EQ PUSH2 0x173 JUMPI DUP1 PUSH4 0x8A723575 EQ PUSH2 0x1A3 JUMPI DUP1 PUSH4 0x922635D8 EQ PUSH2 0x1D3 JUMPI DUP1 PUSH4 0xBDB42141 EQ PUSH2 0x207 JUMPI DUP1 PUSH4 0xF2D893E4 EQ PUSH2 0x237 JUMPI PUSH2 0x9E JUMP JUMPDEST DUP1 PUSH4 0x1727FDDB EQ PUSH2 0xA3 JUMPI DUP1 PUSH4 0x22CE30BF EQ PUSH2 0xD3 JUMPI DUP1 PUSH4 0x30532362 EQ PUSH2 0xF1 JUMPI DUP1 PUSH4 0x3D1C2273 EQ PUSH2 0x121 JUMPI DUP1 PUSH4 0x3F9B250A EQ PUSH2 0x13F JUMPI JUMPDEST PUSH1 0x0 DUP1 REVERT JUMPDEST PUSH2 0xBD PUSH1 0x4 DUP1 CALLDATASIZE SUB DUP2 ADD SWAP1 PUSH2 0xB8 SWAP2 SWAP1 PUSH2 0xC0C JUMP JUMPDEST PUSH2 0x267 JUMP JUMPDEST PUSH1 0x40 MLOAD PUSH2 0xCA SWAP2 SWAP1 PUSH2 0xC9D JUMP JUMPDEST PUSH1 0x40 MLOAD DUP1 SWAP2 SUB SWAP1 RETURN JUMPDEST PUSH2 0xDB PUSH2 0x2B1 JUMP JUMPDEST PUSH1 0x40 MLOAD PUSH2 0xE8 SWAP2 SWAP1 PUSH2 0xC9D JUMP JUMPDEST PUSH1 0x40 MLOAD DUP1 SWAP2 SUB SWAP1 RETURN JUMPDEST PUSH2 0x10B PUSH1 0x4 DUP1 CALLDATASIZE SUB DUP2 ADD SWAP1 PUSH2 0x106 SWAP2 SWAP1 PUSH2 0xCB8 JUMP JUMPDEST PUSH2 0x2BB JUMP JUMPDEST PUSH1 0x40 MLOAD PUSH2 0x118 SWAP2 SWAP1 PUSH2 0xC9D JUMP JUMPDEST PUSH1 0x40 MLOAD DUP1 SWAP2 SUB SWAP1 RETURN JUMPDEST PUSH2 0x129 PUSH2 0x2D1 JUMP JUMPDEST PUSH1 0x40 MLOAD PUSH2 0x136 SWAP2 SWAP1 PUSH2 0xC9D JUMP JUMPDEST PUSH1 0x40 MLOAD DUP1 SWAP2 SUB SWAP1 RETURN JUMPDEST PUSH2 0x159 PUSH1 0x4 DUP1 CALLDATASIZE SUB DUP2 ADD SWAP1 PUSH2 0x154 SWAP2 SWAP1 PUSH2 0xD8B JUMP JUMPDEST PUSH2 0x2DB JUMP JUMPDEST PUSH1 0x40 MLOAD PUSH2 0x16A SWAP6 SWAP5 SWAP4 SWAP3 SWAP2 SWAP1 PUSH2 0xE78 JUMP JUMPDEST PUSH1 0x40 MLOAD DUP1 SWAP2 SUB SWAP1 RETURN JUMPDEST PUSH2 0x18D PUSH1 0x4 DUP1 CALLDATASIZE SUB DUP2 ADD SWAP1 PUSH2 0x188 SWAP2 SWAP1 PUSH2 0xC0C JUMP JUMPDEST PUSH2 0x2FF JUMP JUMPDEST PUSH1 0x40 MLOAD PUSH2 0x19A SWAP2 SWAP1 PUSH2 0xC9D JUMP JUMPDEST PUSH1 0x40 MLOAD DUP1 SWAP2 SUB SWAP1 RETURN JUMPDEST PUSH2 0x1BD PUSH1 0x4 DUP1 CALLDATASIZE SUB DUP2 ADD SWAP1 PUSH2 0x1B8 SWAP2 SWAP1 PUSH2 0xC0C JUMP JUMPDEST PUSH2 0x349 JUMP JUMPDEST PUSH1 0x40 MLOAD PUSH2 0x1CA SWAP2 SWAP1 PUSH2 0xC9D JUMP JUMPDEST PUSH1 0x40 MLOAD DUP1 SWAP2 SUB SWAP1 RETURN JUMPDEST PUSH2 0x1ED PUSH1 0x4 DUP1 CALLDATASIZE SUB DUP2 ADD SWAP1 PUSH2 0x1E8 SWAP2 SWAP1 PUSH2 0xD8B JUMP JUMPDEST PUSH2 0x393 JUMP JUMPDEST PUSH1 0x40 MLOAD PUSH2 0x1FE SWAP6 SWAP5 SWAP4 SWAP3 SWAP2 SWAP1 PUSH2 0xE78 JUMP JUMPDEST PUSH1 0x40 MLOAD DUP1 SWAP2 SUB SWAP1 RETURN JUMPDEST PUSH2 0x221 PUSH1 0x4 DUP1 CALLDATASIZE SUB DUP2 ADD SWAP1 PUSH2 0x21C SWAP2 SWAP1 PUSH2 0xC0C JUMP JUMPDEST PUSH2 0x650 JUMP JUMPDEST PUSH1 0x40 MLOAD PUSH2 0x22E SWAP2 SWAP1 PUSH2 0xC9D JUMP JUMPDEST PUSH1 0x40 MLOAD DUP1 SWAP2 SUB SWAP1 RETURN JUMPDEST PUSH2 0x251 PUSH1 0x4 DUP1 CALLDATASIZE SUB DUP2 ADD SWAP1 PUSH2 0x24C SWAP2 SWAP1 PUSH2 0xCB8 JUMP JUMPDEST PUSH2 0x69A JUMP JUMPDEST PUSH1 0x40 MLOAD PUSH2 0x25E SWAP2 SWAP1 PUSH2 0xC9D JUMP JUMPDEST PUSH1 0x40 MLOAD DUP1 SWAP2 SUB SWAP1 RETURN JUMPDEST PUSH1 0x0 PUSH2 0x2A9 PUSH1 0x40 MLOAD DUP1 PUSH1 0x40 ADD PUSH1 0x40 MSTORE DUP1 PUSH1 0x8 DUP2 MSTORE PUSH1 0x20 ADD PUSH32 0x506C616E6E696E67000000000000000000000000000000000000000000000000 DUP2 MSTORE POP DUP5 DUP5 PUSH2 0x950 JUMP JUMPDEST SWAP1 POP SWAP3 SWAP2 POP POP JUMP JUMPDEST PUSH1 0x0 PUSH1 0x1 SLOAD SWAP1 POP SWAP1 JUMP JUMPDEST PUSH1 0x0 PUSH2 0x2C8 DUP5 DUP5 DUP5 PUSH2 0x950 JUMP JUMPDEST SWAP1 POP SWAP4 SWAP3 POP POP POP JUMP JUMPDEST PUSH1 0x0 PUSH1 0x1 SLOAD SWAP1 POP SWAP1 JUMP JUMPDEST PUSH1 0x60 DUP1 PUSH1 0x60 PUSH1 0x0 DUP1 PUSH2 0x2EC DUP7 PUSH2 0x393 JUMP JUMPDEST SWAP5 POP SWAP5 POP SWAP5 POP SWAP5 POP SWAP5 POP SWAP2 SWAP4 SWAP6 SWAP1 SWAP3 SWAP5 POP JUMP JUMPDEST PUSH1 0x0 PUSH2 0x341 PUSH1 0x40 MLOAD DUP1 PUSH1 0x40 ADD PUSH1 0x40 MSTORE DUP1 PUSH1 0xA DUP2 MSTORE PUSH1 0x20 ADD PUSH32 0x4D6F6E69746F72696E6700000000000000000000000000000000000000000000 DUP2 MSTORE POP DUP5 DUP5 PUSH2 0x950 JUMP JUMPDEST SWAP1 POP SWAP3 SWAP2 POP POP JUMP JUMPDEST PUSH1 0x0 PUSH2 0x38B PUSH1 0x40 MLOAD DUP1 PUSH1 0x40 ADD PUSH1 0x40 MSTORE DUP1 PUSH1 0xC DUP2 MSTORE PUSH1 0x20 ADD PUSH32 0x566572696669636174696F6E0000000000000000000000000000000000000000 DUP2 MSTORE POP DUP5 DUP5 PUSH2 0x950 JUMP JUMPDEST SWAP1 POP SWAP3 SWAP2 POP POP JUMP JUMPDEST PUSH1 0x60 DUP1 PUSH1 0x60 PUSH1 0x0 DUP1 PUSH1 0x0 DUP7 GT DUP1 ISZERO PUSH2 0x3AD JUMPI POP PUSH1 0x1 SLOAD DUP7 GT ISZERO JUMPDEST PUSH2 0x3EC JUMPI PUSH1 0x40 MLOAD PUSH32 0x8C379A000000000000000000000000000000000000000000000000000000000 DUP2 MSTORE PUSH1 0x4 ADD PUSH2 0x3E3 SWAP1 PUSH2 0xF2C JUMP JUMPDEST PUSH1 0x40 MLOAD DUP1 SWAP2 SUB SWAP1 REVERT JUMPDEST PUSH1 0x0 DUP1 PUSH1 0x0 DUP9 DUP2 MSTORE PUSH1 0x20 ADD SWAP1 DUP2 MSTORE PUSH1 0x20 ADD PUSH1 0x0 KECCAK256 PUSH1 0x40 MLOAD DUP1 PUSH1 0xA0 ADD PUSH1 0x40 MSTORE SWAP1 DUP2 PUSH1 0x0 DUP3 ADD DUP1 SLOAD PUSH2 0x41B SWAP1 PUSH2 0xF7B JUMP JUMPDEST DUP1 PUSH1 0x1F ADD PUSH1 0x20 DUP1 SWAP2 DIV MUL PUSH1 0x20 ADD PUSH1 0x40 MLOAD SWAP1 DUP2 ADD PUSH1 0x40 MSTORE DUP1 SWAP3 SWAP2 SWAP1 DUP2 DUP2 MSTORE PUSH1 0x20 ADD DUP3 DUP1 SLOAD PUSH2 0x447 SWAP1 PUSH2 0xF7B JUMP JUMPDEST DUP1 ISZERO PUSH2 0x494 JUMPI DUP1 PUSH1 0x1F LT PUSH2 0x469 JUMPI PUSH2 0x100 DUP1 DUP4 SLOAD DIV MUL DUP4 MSTORE SWAP2 PUSH1 0x20 ADD SWAP2 PUSH2 0x494 JUMP JUMPDEST DUP3 ADD SWAP2 SWAP1 PUSH1 0x0 MSTORE PUSH1 0x20 PUSH1 0x0 KECCAK256 SWAP1 JUMPDEST DUP2 SLOAD DUP2 MSTORE SWAP1 PUSH1 0x1 ADD SWAP1 PUSH1 0x20 ADD DUP1 DUP4 GT PUSH2 0x477 JUMPI DUP3 SWAP1 SUB PUSH1 0x1F AND DUP3 ADD SWAP2 JUMPDEST POP POP POP POP POP DUP2 MSTORE PUSH1 0x20 ADD PUSH1 0x1 DUP3 ADD DUP1 SLOAD PUSH2 0x4AD SWAP1 PUSH2 0xF7B JUMP JUMPDEST DUP1 PUSH1 0x1F ADD PUSH1 0x20 DUP1 SWAP2 DIV MUL PUSH1 0x20 ADD PUSH1 0x40 MLOAD SWAP1 DUP2 ADD PUSH1 0x40 MSTORE DUP1 SWAP3 SWAP2 SWAP1 DUP2 DUP2 MSTORE PUSH1 0x20 ADD DUP3 DUP1 SLOAD PUSH2 0x4D9 SWAP1 PUSH2 0xF7B JUMP JUMPDEST DUP1 ISZERO PUSH2 0x526 JUMPI DUP1 PUSH1 0x1F LT PUSH2 0x4FB JUMPI PUSH2 0x100 DUP1 DUP4 SLOAD DIV MUL DUP4 MSTORE SWAP2 PUSH1 0x20 ADD SWAP2 PUSH2 0x526 JUMP JUMPDEST DUP3 ADD SWAP2 SWAP1 PUSH1 0x0 MSTORE PUSH1 0x20 PUSH1 0x0 KECCAK256 SWAP1 JUMPDEST DUP2 SLOAD DUP2 MSTORE SWAP1 PUSH1 0x1 ADD SWAP1 PUSH1 0x20 ADD DUP1 DUP4 GT PUSH2 0x509 JUMPI DUP3 SWAP1 SUB PUSH1 0x1F AND DUP3 ADD SWAP2 JUMPDEST POP POP POP POP POP DUP2 MSTORE PUSH1 0x20 ADD PUSH1 0x2 DUP3 ADD DUP1 SLOAD PUSH2 0x53F SWAP1 PUSH2 0xF7B JUMP JUMPDEST DUP1 PUSH1 0x1F ADD PUSH1 0x20 DUP1 SWAP2 DIV MUL PUSH1 0x20 ADD PUSH1 0x40 MLOAD SWAP1 DUP2 ADD PUSH1 0x40 MSTORE DUP1 SWAP3 SWAP2 SWAP1 DUP2 DUP2 MSTORE PUSH1 0x20 ADD DUP3 DUP1 SLOAD PUSH2 0x56B SWAP1 PUSH2 0xF7B JUMP JUMPDEST DUP1 ISZERO PUSH2 0x5B8 JUMPI DUP1 PUSH1 0x1F LT PUSH2 0x58D JUMPI PUSH2 0x100 DUP1 DUP4 SLOAD DIV MUL DUP4 MSTORE SWAP2 PUSH1 0x20 ADD SWAP2 PUSH2 0x5B8 JUMP JUMPDEST DUP3 ADD SWAP2 SWAP1 PUSH1 0x0 MSTORE PUSH1 0x20 PUSH1 0x0 KECCAK256 SWAP1 JUMPDEST DUP2 SLOAD DUP2 MSTORE SWAP1 PUSH1 0x1 ADD SWAP1 PUSH1 0x20 ADD DUP1 DUP4 GT PUSH2 0x59B JUMPI DUP3 SWAP1 SUB PUSH1 0x1F AND DUP3 ADD SWAP2 JUMPDEST POP POP POP POP POP DUP2 MSTORE PUSH1 0x20 ADD PUSH1 0x3 DUP3 ADD PUSH1 0x0 SWAP1 SLOAD SWAP1 PUSH2 0x100 EXP SWAP1 DIV PUSH20 0xFFFFFFFFFFFFFFFFFFFFFFFFFFFFFFFFFFFFFFFF AND PUSH20 0xFFFFFFFFFFFFFFFFFFFFFFFFFFFFFFFFFFFFFFFF AND PUSH20 0xFFFFFFFFFFFFFFFFFFFFFFFFFFFFFFFFFFFFFFFF AND DUP2 MSTORE PUSH1 0x20 ADD PUSH1 0x4 DUP3 ADD SLOAD DUP2 MSTORE POP POP SWAP1 POP DUP1 PUSH1 0x0 ADD MLOAD DUP2 PUSH1 0x20 ADD MLOAD DUP3 PUSH1 0x40 ADD MLOAD DUP4 PUSH1 0x60 ADD MLOAD DUP5 PUSH1 0x80 ADD MLOAD SWAP6 POP SWAP6 POP SWAP6 POP SWAP6 POP SWAP6 POP POP SWAP2 SWAP4 SWAP6 SWAP1 SWAP3 SWAP5 POP JUMP JUMPDEST PUSH1 0x0 PUSH2 0x692 PUSH1 0x40 MLOAD DUP1 PUSH1 0x40 ADD PUSH1 0x40 MSTORE DUP1 PUSH1 0xE DUP2 MSTORE PUSH1 0x20 ADD PUSH32 0x496D706C656D656E746174696F6E000000000000000000000000000000000000 DUP2 MSTORE POP DUP5 DUP5 PUSH2 0x950 JUMP JUMPDEST SWAP1 POP SWAP3 SWAP2 POP POP JUMP JUMPDEST PUSH1 0x0 DUP1 PUSH2 0x6A8 DUP6 DUP6 DUP6 PUSH2 0x2BB JUMP JUMPDEST SWAP1 POP PUSH1 0x0 DUP1 PUSH1 0x0 DUP4 DUP2 MSTORE PUSH1 0x20 ADD SWAP1 DUP2 MSTORE PUSH1 0x20 ADD PUSH1 0x0 KECCAK256 PUSH1 0x40 MLOAD DUP1 PUSH1 0xA0 ADD PUSH1 0x40 MSTORE SWAP1 DUP2 PUSH1 0x0 DUP3 ADD DUP1 SLOAD PUSH2 0x6D9 SWAP1 PUSH2 0xF7B JUMP JUMPDEST DUP1 PUSH1 0x1F ADD PUSH1 0x20 DUP1 SWAP2 DIV MUL PUSH1 0x20 ADD PUSH1 0x40 MLOAD SWAP1 DUP2 ADD PUSH1 0x40 MSTORE DUP1 SWAP3 SWAP2 SWAP1 DUP2 DUP2 MSTORE PUSH1 0x20 ADD DUP3 DUP1 SLOAD PUSH2 0x705 SWAP1 PUSH2 0xF7B JUMP JUMPDEST DUP1 ISZERO PUSH2 0x752 JUMPI DUP1 PUSH1 0x1F LT PUSH2 0x727 JUMPI PUSH2 0x100 DUP1 DUP4 SLOAD DIV MUL DUP4 MSTORE SWAP2 PUSH1 0x20 ADD SWAP2 PUSH2 0x752 JUMP JUMPDEST DUP3 ADD SWAP2 SWAP1 PUSH1 0x0 MSTORE PUSH1 0x20 PUSH1 0x0 KECCAK256 SWAP1 JUMPDEST DUP2 SLOAD DUP2 MSTORE SWAP1 PUSH1 0x1 ADD SWAP1 PUSH1 0x20 ADD DUP1 DUP4 GT PUSH2 0x735 JUMPI DUP3 SWAP1 SUB PUSH1 0x1F AND DUP3 ADD SWAP2 JUMPDEST POP POP POP POP POP DUP2 MSTORE PUSH1 0x20 ADD PUSH1 0x1 DUP3 ADD DUP1 SLOAD PUSH2 0x76B SWAP1 PUSH2 0xF7B JUMP JUMPDEST DUP1 PUSH1 0x1F ADD PUSH1 0x20 DUP1 SWAP2 DIV MUL PUSH1 0x20 ADD PUSH1 0x40 MLOAD SWAP1 DUP2 ADD PUSH1 0x40 MSTORE DUP1 SWAP3 SWAP2 SWAP1 DUP2 DUP2 MSTORE PUSH1 0x20 ADD DUP3 DUP1 SLOAD PUSH2 0x797 SWAP1 PUSH2 0xF7B JUMP JUMPDEST DUP1 ISZERO PUSH2 0x7E4 JUMPI DUP1 PUSH1 0x1F LT PUSH2 0x7B9 JUMPI PUSH2 0x100 DUP1 DUP4 SLOAD DIV MUL DUP4 MSTORE SWAP2 PUSH1 0x20 ADD SWAP2 PUSH2 0x7E4 JUMP JUMPDEST DUP3 ADD SWAP2 SWAP1 PUSH1 0x0 MSTORE PUSH1 0x20 PUSH1 0x0 KECCAK256 SWAP1 JUMPDEST DUP2 SLOAD DUP2 MSTORE SWAP1 PUSH1 0x1 ADD SWAP1 PUSH1 0x20 ADD DUP1 DUP4 GT PUSH2 0x7C7 JUMPI DUP3 SWAP1 SUB PUSH1 0x1F AND DUP3 ADD SWAP2 JUMPDEST POP POP POP POP POP DUP2 MSTORE PUSH1 0x20 ADD PUSH1 0x2 DUP3 ADD DUP1 SLOAD PUSH2 0x7FD SWAP1 PUSH2 0xF7B JUMP JUMPDEST DUP1 PUSH1 0x1F ADD PUSH1 0x20 DUP1 SWAP2 DIV MUL PUSH1 0x20 ADD PUSH1 0x40 MLOAD SWAP1 DUP2 ADD PUSH1 0x40 MSTORE DUP1 SWAP3 SWAP2 SWAP1 DUP2 DUP2 MSTORE PUSH1 0x20 ADD DUP3 DUP1 SLOAD PUSH2 0x829 SWAP1 PUSH2 0xF7B JUMP JUMPDEST DUP1 ISZERO PUSH2 0x876 JUMPI DUP1 PUSH1 0x1F LT PUSH2 0x84B JUMPI PUSH2 0x100 DUP1 DUP4 SLOAD DIV MUL DUP4 MSTORE SWAP2 PUSH1 0x20 ADD SWAP2 PUSH2 0x876 JUMP JUMPDEST DUP3 ADD SWAP2 SWAP1 PUSH1 0x0 MSTORE PUSH1 0x20 PUSH1 0x0 KECCAK256 SWAP1 JUMPDEST DUP2 SLOAD DUP2 MSTORE SWAP1 PUSH1 0x1 ADD SWAP1 PUSH1 0x20 ADD DUP1 DUP4 GT PUSH2 0x859 JUMPI DUP3 SWAP1 SUB PUSH1 0x1F AND DUP3 ADD SWAP2 JUMPDEST POP POP POP POP POP DUP2 MSTORE PUSH1 0x20 ADD PUSH1 0x3 DUP3 ADD PUSH1 0x0 SWAP1 SLOAD SWAP1 PUSH2 0x100 EXP SWAP1 DIV PUSH20 0xFFFFFFFFFFFFFFFFFFFFFFFFFFFFFFFFFFFFFFFF AND PUSH20 0xFFFFFFFFFFFFFFFFFFFFFFFFFFFFFFFFFFFFFFFF AND PUSH20 0xFFFFFFFFFFFFFFFFFFFFFFFFFFFFFFFFFFFFFFFF AND DUP2 MSTORE PUSH1 0x20 ADD PUSH1 0x4 DUP3 ADD SLOAD DUP2 MSTORE POP POP SWAP1 POP DUP1 PUSH1 0x60 ADD MLOAD PUSH20 0xFFFFFFFFFFFFFFFFFFFFFFFFFFFFFFFFFFFFFFFF AND DUP3 PUSH32 0xF649D7D9D2F86602B811728F937E408CA2DC52F7AC5BF46ACAEFBEF486F1415D DUP4 PUSH1 0x0 ADD MLOAD DUP5 PUSH1 0x20 ADD MLOAD DUP6 PUSH1 0x80 ADD MLOAD PUSH1 0x40 MLOAD PUSH2 0x93C SWAP4 SWAP3 SWAP2 SWAP1 PUSH2 0xFAC JUMP JUMPDEST PUSH1 0x40 MLOAD DUP1 SWAP2 SUB SWAP1 LOG3 DUP2 SWAP3 POP POP POP SWAP4 SWAP3 POP POP POP JUMP JUMPDEST PUSH1 0x0 PUSH1 0x1 PUSH1 0x0 DUP2 SLOAD DUP1 SWAP3 SWAP2 SWAP1 PUSH2 0x965 SWAP1 PUSH2 0x1020 JUMP JUMPDEST SWAP2 SWAP1 POP SSTORE POP PUSH1 0x40 MLOAD DUP1 PUSH1 0xA0 ADD PUSH1 0x40 MSTORE DUP1 DUP6 DUP2 MSTORE PUSH1 0x20 ADD DUP5 DUP2 MSTORE PUSH1 0x20 ADD DUP4 DUP2 MSTORE PUSH1 0x20 ADD CALLER PUSH20 0xFFFFFFFFFFFFFFFFFFFFFFFFFFFFFFFFFFFFFFFF AND DUP2 MSTORE PUSH1 0x20 ADD TIMESTAMP DUP2 MSTORE POP PUSH1 0x0 DUP1 PUSH1 0x1 SLOAD DUP2 MSTORE PUSH1 0x20 ADD SWAP1 DUP2 MSTORE PUSH1 0x20 ADD PUSH1 0x0 KECCAK256 PUSH1 0x0 DUP3 ADD MLOAD DUP2 PUSH1 0x0 ADD SWAP1 DUP2 PUSH2 0x9D0 SWAP2 SWAP1 PUSH2 0x1214 JUMP JUMPDEST POP PUSH1 0x20 DUP3 ADD MLOAD DUP2 PUSH1 0x1 ADD SWAP1 DUP2 PUSH2 0x9E6 SWAP2 SWAP1 PUSH2 0x1214 JUMP JUMPDEST POP PUSH1 0x40 DUP3 ADD MLOAD DUP2 PUSH1 0x2 ADD SWAP1 DUP2 PUSH2 0x9FC SWAP2 SWAP1 PUSH2 0x1214 JUMP JUMPDEST POP PUSH1 0x60 DUP3 ADD MLOAD DUP2 PUSH1 0x3 ADD PUSH1 0x0 PUSH2 0x100 EXP DUP2 SLOAD DUP2 PUSH20 0xFFFFFFFFFFFFFFFFFFFFFFFFFFFFFFFFFFFFFFFF MUL NOT AND SWAP1 DUP4 PUSH20 0xFFFFFFFFFFFFFFFFFFFFFFFFFFFFFFFFFFFFFFFF AND MUL OR SWAP1 SSTORE POP PUSH1 0x80 DUP3 ADD MLOAD DUP2 PUSH1 0x4 ADD SSTORE SWAP1 POP POP CALLER PUSH20 0xFFFFFFFFFFFFFFFFFFFFFFFFFFFFFFFFFFFFFFFF AND PUSH1 0x1 SLOAD PUSH32 0x1A963893ABCA512D4509F228C9ACD4B12DC3C62D22CB6603D7BA3B41300D529C DUP7 DUP7 TIMESTAMP PUSH1 0x40 MLOAD PUSH2 0xA9E SWAP4 SWAP3 SWAP2 SWAP1 PUSH2 0xFAC JUMP JUMPDEST PUSH1 0x40 MLOAD DUP1 SWAP2 SUB SWAP1 LOG3 PUSH1 0x1 SLOAD SWAP1 POP SWAP4 SWAP3 POP POP POP JUMP JUMPDEST PUSH1 0x0 PUSH1 0x40 MLOAD SWAP1 POP SWAP1 JUMP JUMPDEST PUSH1 0x0 DUP1 REVERT JUMPDEST PUSH1 0x0 DUP1 REVERT JUMPDEST PUSH1 0x0 DUP1 REVERT JUMPDEST PUSH1 0x0 DUP1 REVERT JUMPDEST PUSH1 0x0 PUSH1 0x1F NOT PUSH1 0x1F DUP4 ADD AND SWAP1 POP SWAP2 SWAP1 POP JUMP JUMPDEST PUSH32 0x4E487B7100000000000000000000000000000000000000000000000000000000 PUSH1 0x0 MSTORE PUSH1 0x41 PUSH1 0x4 MSTORE PUSH1 0x24 PUSH1 0x0 REVERT JUMPDEST PUSH2 0xB19 DUP3 PUSH2 0xAD0 JUMP JUMPDEST DUP2 ADD DUP2 DUP2 LT PUSH8 0xFFFFFFFFFFFFFFFF DUP3 GT OR ISZERO PUSH2 0xB38 JUMPI PUSH2 0xB37 PUSH2 0xAE1 JUMP JUMPDEST JUMPDEST DUP1 PUSH1 0x40 MSTORE POP POP POP JUMP JUMPDEST PUSH1 0x0 PUSH2 0xB4B PUSH2 0xAB2 JUMP JUMPDEST SWAP1 POP PUSH2 0xB57 DUP3 DUP3 PUSH2 0xB10 JUMP JUMPDEST SWAP2 SWAP1 POP JUMP JUMPDEST PUSH1 0x0 PUSH8 0xFFFFFFFFFFFFFFFF DUP3 GT ISZERO PUSH2 0xB77 JUMPI PUSH2 0xB76 PUSH2 0xAE1 JUMP JUMPDEST JUMPDEST PUSH2 0xB80 DUP3 PUSH2 0xAD0 JUMP JUMPDEST SWAP1 POP PUSH1 0x20 DUP2 ADD SWAP1 POP SWAP2 SWAP1 POP JUMP JUMPDEST DUP3 DUP2 DUP4 CALLDATACOPY PUSH1 0x0 DUP4 DUP4 ADD MSTORE POP POP POP JUMP JUMPDEST PUSH1 0x0 PUSH2 0xBAF PUSH2 0xBAA DUP5 PUSH2 0xB5C JUMP JUMPDEST PUSH2 0xB41 JUMP JUMPDEST SWAP1 POP DUP3 DUP2 MSTORE PUSH1 0x20 DUP2 ADD DUP5 DUP5 DUP5 ADD GT ISZERO PUSH2 0xBCB JUMPI PUSH2 0xBCA PUSH2 0xACB JUMP JUMPDEST JUMPDEST PUSH2 0xBD6 DUP5 DUP3 DUP6 PUSH2 0xB8D JUMP JUMPDEST POP SWAP4 SWAP3 POP POP POP JUMP JUMPDEST PUSH1 0x0 DUP3 PUSH1 0x1F DUP4 ADD SLT PUSH2 0xBF3 JUMPI PUSH2 0xBF2 PUSH2 0xAC6 JUMP JUMPDEST JUMPDEST DUP2 CALLDATALOAD PUSH2 0xC03 DUP5 DUP3 PUSH1 0x20 DUP7 ADD PUSH2 0xB9C JUMP JUMPDEST SWAP2 POP POP SWAP3 SWAP2 POP POP JUMP JUMPDEST PUSH1 0x0 DUP1 PUSH1 0x40 DUP4 DUP6 SUB SLT ISZERO PUSH2 0xC23 JUMPI PUSH2 0xC22 PUSH2 0xABC JUMP JUMPDEST JUMPDEST PUSH1 0x0 DUP4 ADD CALLDATALOAD PUSH8 0xFFFFFFFFFFFFFFFF DUP2 GT ISZERO PUSH2 0xC41 JUMPI PUSH2 0xC40 PUSH2 0xAC1 JUMP JUMPDEST JUMPDEST PUSH2 0xC4D DUP6 DUP3 DUP7 ADD PUSH2 0xBDE JUMP JUMPDEST SWAP3 POP POP PUSH1 0x20 DUP4 ADD CALLDATALOAD PUSH8 0xFFFFFFFFFFFFFFFF DUP2 GT ISZERO PUSH2 0xC6E JUMPI PUSH2 0xC6D PUSH2 0xAC1 JUMP JUMPDEST JUMPDEST PUSH2 0xC7A DUP6 DUP3 DUP7 ADD PUSH2 0xBDE JUMP JUMPDEST SWAP2 POP POP SWAP3 POP SWAP3 SWAP1 POP JUMP JUMPDEST PUSH1 0x0 DUP2 SWAP1 POP SWAP2 SWAP1 POP JUMP JUMPDEST PUSH2 0xC97 DUP2 PUSH2 0xC84 JUMP JUMPDEST DUP3 MSTORE POP POP JUMP JUMPDEST PUSH1 0x0 PUSH1 0x20 DUP3 ADD SWAP1 POP PUSH2 0xCB2 PUSH1 0x0 DUP4 ADD DUP5 PUSH2 0xC8E JUMP JUMPDEST SWAP3 SWAP2 POP POP JUMP JUMPDEST PUSH1 0x0 DUP1 PUSH1 0x0 PUSH1 0x60 DUP5 DUP7 SUB SLT ISZERO PUSH2 0xCD1 JUMPI PUSH2 0xCD0 PUSH2 0xABC JUMP JUMPDEST JUMPDEST PUSH1 0x0 DUP5 ADD CALLDATALOAD PUSH8 0xFFFFFFFFFFFFFFFF DUP2 GT ISZERO PUSH2 0xCEF JUMPI PUSH2 0xCEE PUSH2 0xAC1 JUMP JUMPDEST JUMPDEST PUSH2 0xCFB DUP7 DUP3 DUP8 ADD PUSH2 0xBDE JUMP JUMPDEST SWAP4 POP POP PUSH1 0x20 DUP5 ADD CALLDATALOAD PUSH8 0xFFFFFFFFFFFFFFFF DUP2 GT ISZERO PUSH2 0xD1C JUMPI PUSH2 0xD1B PUSH2 0xAC1 JUMP JUMPDEST JUMPDEST PUSH2 0xD28 DUP7 DUP3 DUP8 ADD PUSH2 0xBDE JUMP JUMPDEST SWAP3 POP POP PUSH1 0x40 DUP5 ADD CALLDATALOAD PUSH8 0xFFFFFFFFFFFFFFFF DUP2 GT ISZERO PUSH2 0xD49 JUMPI PUSH2 0xD48 PUSH2 0xAC1 JUMP JUMPDEST JUMPDEST PUSH2 0xD55 DUP7 DUP3 DUP8 ADD PUSH2 0xBDE JUMP JUMPDEST SWAP2 POP POP SWAP3 POP SWAP3 POP SWAP3 JUMP JUMPDEST PUSH2 0xD68 DUP2 PUSH2 0xC84 JUMP JUMPDEST DUP2 EQ PUSH2 0xD73 JUMPI PUSH1 0x0 DUP1 REVERT JUMPDEST POP JUMP JUMPDEST PUSH1 0x0 DUP2 CALLDATALOAD SWAP1 POP PUSH2 0xD85 DUP2 PUSH2 0xD5F JUMP JUMPDEST SWAP3 SWAP2 POP POP JUMP JUMPDEST PUSH1 0x0 PUSH1 0x20 DUP3 DUP5 SUB SLT ISZERO PUSH2 0xDA1 JUMPI PUSH2 0xDA0 PUSH2 0xABC JUMP JUMPDEST JUMPDEST PUSH1 0x0 PUSH2 0xDAF DUP5 DUP3 DUP6 ADD PUSH2 0xD76 JUMP JUMPDEST SWAP2 POP POP SWAP3 SWAP2 POP POP JUMP JUMPDEST PUSH1 0x0 DUP2 MLOAD SWAP1 POP SWAP2 SWAP1 POP JUMP JUMPDEST PUSH1 0x0 DUP3 DUP3 MSTORE PUSH1 0x20 DUP3 ADD SWAP1 POP SWAP3 SWAP2 POP POP JUMP JUMPDEST PUSH1 0x0 JUMPDEST DUP4 DUP2 LT ISZERO PUSH2 0xDF2 JUMPI DUP1 DUP3 ADD MLOAD DUP2 DUP5 ADD MSTORE PUSH1 0x20 DUP2 ADD SWAP1 POP PUSH2 0xDD7 JUMP JUMPDEST PUSH1 0x0 DUP5 DUP5 ADD MSTORE POP POP POP POP JUMP JUMPDEST PUSH1 0x0 PUSH2 0xE09 DUP3 PUSH2 0xDB8 JUMP JUMPDEST PUSH2 0xE13 DUP2 DUP6 PUSH2 0xDC3 JUMP JUMPDEST SWAP4 POP PUSH2 0xE23 DUP2 DUP6 PUSH1 0x20 DUP7 ADD PUSH2 0xDD4 JUMP JUMPDEST PUSH2 0xE2C DUP2 PUSH2 0xAD0 JUMP JUMPDEST DUP5 ADD SWAP2 POP POP SWAP3 SWAP2 POP POP JUMP JUMPDEST PUSH1 0x0 PUSH20 0xFFFFFFFFFFFFFFFFFFFFFFFFFFFFFFFFFFFFFFFF DUP3 AND SWAP1 POP SWAP2 SWAP1 POP JUMP JUMPDEST PUSH1 0x0 PUSH2 0xE62 DUP3 PUSH2 0xE37 JUMP JUMPDEST SWAP1 POP SWAP2 SWAP1 POP JUMP JUMPDEST PUSH2 0xE72 DUP2 PUSH2 0xE57 JUMP JUMPDEST DUP3 MSTORE POP POP JUMP JUMPDEST PUSH1 0x0 PUSH1 0xA0 DUP3 ADD SWAP1 POP DUP2 DUP2 SUB PUSH1 0x0 DUP4 ADD MSTORE PUSH2 0xE92 DUP2 DUP9 PUSH2 0xDFE JUMP JUMPDEST SWAP1 POP DUP2 DUP2 SUB PUSH1 0x20 DUP4 ADD MSTORE PUSH2 0xEA6 DUP2 DUP8 PUSH2 0xDFE JUMP JUMPDEST SWAP1 POP DUP2 DUP2 SUB PUSH1 0x40 DUP4 ADD MSTORE PUSH2 0xEBA DUP2 DUP7 PUSH2 0xDFE JUMP JUMPDEST SWAP1 POP PUSH2 0xEC9 PUSH1 0x60 DUP4 ADD DUP6 PUSH2 0xE69 JUMP JUMPDEST PUSH2 0xED6 PUSH1 0x80 DUP4 ADD DUP5 PUSH2 0xC8E JUMP JUMPDEST SWAP7 SWAP6 POP POP POP POP POP POP JUMP JUMPDEST PUSH32 0x496E76616C696420616374697669747920494400000000000000000000000000 PUSH1 0x0 DUP3 ADD MSTORE POP JUMP JUMPDEST PUSH1 0x0 PUSH2 0xF16 PUSH1 0x13 DUP4 PUSH2 0xDC3 JUMP JUMPDEST SWAP2 POP PUSH2 0xF21 DUP3 PUSH2 0xEE0 JUMP JUMPDEST PUSH1 0x20 DUP3 ADD SWAP1 POP SWAP2 SWAP1 POP JUMP JUMPDEST PUSH1 0x0 PUSH1 0x20 DUP3 ADD SWAP1 POP DUP2 DUP2 SUB PUSH1 0x0 DUP4 ADD MSTORE PUSH2 0xF45 DUP2 PUSH2 0xF09 JUMP JUMPDEST SWAP1 POP SWAP2 SWAP1 POP JUMP JUMPDEST PUSH32 0x4E487B7100000000000000000000000000000000000000000000000000000000 PUSH1 0x0 MSTORE PUSH1 0x22 PUSH1 0x4 MSTORE PUSH1 0x24 PUSH1 0x0 REVERT JUMPDEST PUSH1 0x0 PUSH1 0x2 DUP3 DIV SWAP1 POP PUSH1 0x1 DUP3 AND DUP1 PUSH2 0xF93 JUMPI PUSH1 0x7F DUP3 AND SWAP2 POP JUMPDEST PUSH1 0x20 DUP3 LT DUP2 SUB PUSH2 0xFA6 JUMPI PUSH2 0xFA5 PUSH2 0xF4C JUMP JUMPDEST JUMPDEST POP SWAP2 SWAP1 POP JUMP JUMPDEST PUSH1 0x0 PUSH1 0x60 DUP3 ADD SWAP1 POP DUP2 DUP2 SUB PUSH1 0x0 DUP4 ADD MSTORE PUSH2 0xFC6 DUP2 DUP7 PUSH2 0xDFE JUMP JUMPDEST SWAP1 POP DUP2 DUP2 SUB PUSH1 0x20 DUP4 ADD MSTORE PUSH2 0xFDA DUP2 DUP6 PUSH2 0xDFE JUMP JUMPDEST SWAP1 POP PUSH2 0xFE9 PUSH1 0x40 DUP4 ADD DUP5 PUSH2 0xC8E JUMP JUMPDEST SWAP5 SWAP4 POP POP POP POP JUMP JUMPDEST PUSH32 0x4E487B7100000000000000000000000000000000000000000000000000000000 PUSH1 0x0 MSTORE PUSH1 0x11 PUSH1 0x4 MSTORE PUSH1 0x24 PUSH1 0x0 REVERT JUMPDEST PUSH1 0x0 PUSH2 0x102B DUP3 PUSH2 0xC84 JUMP JUMPDEST SWAP2 POP PUSH32 0xFFFFFFFFFFFFFFFFFFFFFFFFFFFFFFFFFFFFFFFFFFFFFFFFFFFFFFFFFFFFFFFF DUP3 SUB PUSH2 0x105D JUMPI PUSH2 0x105C PUSH2 0xFF1 JUMP JUMPDEST JUMPDEST PUSH1 0x1 DUP3 ADD SWAP1 POP SWAP2 SWAP1 POP JUMP JUMPDEST PUSH1 0x0 DUP2 SWAP1 POP DUP2 PUSH1 0x0 MSTORE PUSH1 0x20 PUSH1 0x0 KECCAK256 SWAP1 POP SWAP2 SWAP1 POP JUMP JUMPDEST PUSH1 0x0 PUSH1 0x20 PUSH1 0x1F DUP4 ADD DIV SWAP1 POP SWAP2 SWAP1 POP JUMP JUMPDEST PUSH1 0x0 DUP3 DUP3 SHL SWAP1 POP SWAP3 SWAP2 POP POP JUMP JUMPDEST PUSH1 0x0 PUSH1 0x8 DUP4 MUL PUSH2 0x10CA PUSH32 0xFFFFFFFFFFFFFFFFFFFFFFFFFFFFFFFFFFFFFFFFFFFFFFFFFFFFFFFFFFFFFFFF DUP3 PUSH2 0x108D JUMP JUMPDEST PUSH2 0x10D4 DUP7 DUP4 PUSH2 0x108D JUMP JUMPDEST SWAP6 POP DUP1 NOT DUP5 AND SWAP4 POP DUP1 DUP7 AND DUP5 OR SWAP3 POP POP POP SWAP4 SWAP3 POP POP POP JUMP JUMPDEST PUSH1 0x0 DUP2 SWAP1 POP SWAP2 SWAP1 POP JUMP JUMPDEST PUSH1 0x0 PUSH2 0x1111 PUSH2 0x110C PUSH2 0x1107 DUP5 PUSH2 0xC84 JUMP JUMPDEST PUSH2 0x10EC JUMP JUMPDEST PUSH2 0xC84 JUMP JUMPDEST SWAP1 POP SWAP2 SWAP1 POP JUMP JUMPDEST PUSH1 0x0 DUP2 SWAP1 POP SWAP2 SWAP1 POP JUMP JUMPDEST PUSH2 0x112B DUP4 PUSH2 0x10F6 JUMP JUMPDEST PUSH2 0x113F PUSH2 0x1137 DUP3 PUSH2 0x1118 JUMP JUMPDEST DUP5 DUP5 SLOAD PUSH2 0x109A JUMP JUMPDEST DUP3 SSTORE POP POP POP POP JUMP JUMPDEST PUSH1 0x0 SWAP1 JUMP JUMPDEST PUSH2 0x1154 PUSH2 0x1147 JUMP JUMPDEST PUSH2 0x115F DUP2 DUP5 DUP5 PUSH2 0x1122 JUMP JUMPDEST POP POP POP JUMP JUMPDEST JUMPDEST DUP2 DUP2 LT ISZERO PUSH2 0x1183 JUMPI PUSH2 0x1178 PUSH1 0x0 DUP3 PUSH2 0x114C JUMP JUMPDEST PUSH1 0x1 DUP2 ADD SWAP1 POP PUSH2 0x1165 JUMP JUMPDEST POP POP JUMP JUMPDEST PUSH1 0x1F DUP3 GT ISZERO PUSH2 0x11C8 JUMPI PUSH2 0x1199 DUP2 PUSH2 0x1068 JUMP JUMPDEST PUSH2 0x11A2 DUP5 PUSH2 0x107D JUMP JUMPDEST DUP2 ADD PUSH1 0x20 DUP6 LT ISZERO PUSH2 0x11B1 JUMPI DUP2 SWAP1 POP JUMPDEST PUSH2 0x11C5 PUSH2 0x11BD DUP6 PUSH2 0x107D JUMP JUMPDEST DUP4 ADD DUP3 PUSH2 0x1164 JUMP JUMPDEST POP POP JUMPDEST POP POP POP JUMP JUMPDEST PUSH1 0x0 DUP3 DUP3 SHR SWAP1 POP SWAP3 SWAP2 POP POP JUMP JUMPDEST PUSH1 0x0 PUSH2 0x11EB PUSH1 0x0 NOT DUP5 PUSH1 0x8 MUL PUSH2 0x11CD JUMP JUMPDEST NOT DUP1 DUP4 AND SWAP2 POP POP SWAP3 SWAP2 POP POP JUMP JUMPDEST PUSH1 0x0 PUSH2 0x1204 DUP4 DUP4 PUSH2 0x11DA JUMP JUMPDEST SWAP2 POP DUP3 PUSH1 0x2 MUL DUP3 OR SWAP1 POP SWAP3 SWAP2 POP POP JUMP JUMPDEST PUSH2 0x121D DUP3 PUSH2 0xDB8 JUMP JUMPDEST PUSH8 0xFFFFFFFFFFFFFFFF DUP2 GT ISZERO PUSH2 0x1236 JUMPI PUSH2 0x1235 PUSH2 0xAE1 JUMP JUMPDEST JUMPDEST PUSH2 0x1240 DUP3 SLOAD PUSH2 0xF7B JUMP JUMPDEST PUSH2 0x124B DUP3 DUP3 DUP6 PUSH2 0x1187 JUMP JUMPDEST PUSH1 0x0 PUSH1 0x20 SWAP1 POP PUSH1 0x1F DUP4 GT PUSH1 0x1 DUP2 EQ PUSH2 0x127E JUMPI PUSH1 0x0 DUP5 ISZERO PUSH2 0x126C JUMPI DUP3 DUP8 ADD MLOAD SWAP1 POP JUMPDEST PUSH2 0x1276 DUP6 DUP3 PUSH2 0x11F8 JUMP JUMPDEST DUP7 SSTORE POP PUSH2 0x12DE JUMP JUMPDEST PUSH1 0x1F NOT DUP5 AND PUSH2 0x128C DUP7 PUSH2 0x1068 JUMP JUMPDEST PUSH1 0x0 JUMPDEST DUP3 DUP2 LT ISZERO PUSH2 0x12B4 JUMPI DUP5 DUP10 ADD MLOAD DUP3 SSTORE PUSH1 0x1 DUP3 ADD SWAP2 POP PUSH1 0x20 DUP6 ADD SWAP5 POP PUSH1 0x20 DUP2 ADD SWAP1 POP PUSH2 0x128F JUMP JUMPDEST DUP7 DUP4 LT ISZERO PUSH2 0x12D1 JUMPI DUP5 DUP10 ADD MLOAD PUSH2 0x12CD PUSH1 0x1F DUP10 AND DUP3 PUSH2 0x11DA JUMP JUMPDEST DUP4 SSTORE POP JUMPDEST PUSH1 0x1 PUSH1 0x2 DUP9 MUL ADD DUP9 SSTORE POP POP POP JUMPDEST POP POP POP POP POP POP JUMP INVALID LOG2 PUSH5 0x6970667358 0x22 SLT KECCAK256 0xCB PUSH8 0x57777798B0FB48CF 0xEA MOD PUSH32 0xF7ABED8A77F58A51955513299B495FBABEB60364736F6C634300081300330000 "},"methodIdentifiers":{"getActivity(uint256)":"922635d8","getActivityCount()":"22ce30bf","getDocument(uint256)":"3f9b250a","getDocumentCount()":"3d1c2273","recordImplementation(string,string)":"bdb42141","recordMonitoring(string,string)":"839ab299","recordPlanning(string,string)":"1727fddb","recordVerification(string,string)":"8a723575","storeActivity(string,string,string)":"30532362","storeDocument(string,string,string)":"f2d893e4"}}}}}