{
  "_format": "hh3-artifact-1",
  "contractName": "DocumentRegistry",
  "sourceName": "contracts/DocumentRegistry.sol",
  "abi": [
    {
      "anonymous": false,
      "inputs": [
        {
          "indexed": true,
          "internalType": "uint256",
          "name": "activityId",
          "type": "uint256"
        },
        {
          "indexed": false,
          "internalType": "string",
          "name": "activityType",
          "type": "string"
        },
        {
          "indexed": false,
          "internalType": "string",
          "name": "docHash",
          "type": "string"
        },
        {
          "indexed": true,
          "internalType": "address",
          "name": "uploader",
          "type": "address"
        },
        {
          "indexed": false,
          "internalType": "uint256",
          "name": "timestamp",
          "type": "uint256"
        }
      ],
      "name": "ActivityStored",
      "type": "event"
    },
    {
      "anonymous": false,
      "inputs": [
        {
          "indexed": true,
          "internalType": "uint256",
          "name": "docId",
          "type": "uint256"
        },
        {
          "indexed": false,
          "internalType": "string",
          "name": "docType",
          "type": "string"
        },
        {
          "indexed": false,
          "internalType": "string",
          "name": "docHash",
          "type": "string"
        },
        {
          "indexed": true,
          "internalType": "address",
          "name": "uploader",
          "type": "address"
        },
        {
          "indexed": false,
          "internalType": "uint256",
          "name": "timestamp",
          "type": "uint256"
        }
      ],
      "name": "DocumentStored",
      "type": "event"
    },
    {
      "inputs": [
        {
          "internalType": "uint256",
          "name": "_activityId",
          "type": "uint256"
        }
      ],
      "name": "getActivity",
      "outputs": [
        {
          "internalType": "string",
          "name": "activityType",
          "type": "string"
        },
        {
          "internalType": "string",
          "name": "docHash",
          "type": "string"
        },
        {
          "internalType": "string",
          "name": "metadata",
          "type": "string"
        },
        {
          "internalType": "address",
          "name": "uploader",
          "type": "address"
        },
        {
          "internalType": "uint256",
          "name": "timestamp",
          "type": "uint256"
        }
      ],
      "stateMutability": "view",
      "type": "function"
    },
    {
      "inputs": [],
      "name": "getActivityCount",
      "outputs": [
        {
          "internalType": "uint256",
          "name": "",
          "type": "uint256"
        }
      ],
      "stateMutability": "view",
      "type": "function"
    },
    {
      "inputs": [
        {
          "internalType": "uint256",
          "name": "_docId",
          "type": "uint256"
        }
      ],
      "name": "getDocument",
      "outputs": [
        {
          "internalType": "string",
          "name": "docType",
          "type": "string"
        },
        {
          "internalType": "string",
          "name": "docHash",
          "type": "string"
        },
        {
          "internalType": "string",
          "name": "metadata",
          "type": "string"
        },
        {
          "internalType": "address",
          "name": "uploader",
          "type": "address"
        },
        {
          "internalType": "uint256",
          "name": "timestamp",
          "type": "uint256"
        }
      ],
      "stateMutability": "view",
      "type": "function"
    },
    {
      "inputs": [],
      "name": "getDocumentCount",
      "outputs": [
        {
          "internalType": "uint256",
          "name": "",
          "type": "uint256"
        }
      ],
      "stateMutability": "view",
      "type": "function"
    },
    {
      "inputs": [
        {
          "internalType": "string",
          "name": "_activityType",
          "type": "string"
        },
        {
          "internalType": "string",
          "name": "_docHash",
          "type": "string"
        },
        {
          "internalType": "string",
          "name": "_metadata",
          "type": "string"
        }
      ],
      "name": "storeActivity",
      "outputs": [
        {
          "internalType": "uint256",
          "name": "",
          "type": "uint256"
        }
      ],
      "stateMutability": "nonpayable",
      "type": "function"
    },
    {
      "inputs": [
        {
          "internalType": "string",
          "name": "_docType",
          "type": "string"
        },
        {
          "internalType": "string",
          "name": "_docHash",
          "type": "string"
        },
        {
          "internalType": "string",
          "name": "_metadata",
          "type": "string"
        }
      ],
      "name": "storeDocument",
      "outputs": [
        {
          "internalType": "uint256",
          "name": "",
          "type": "uint256"
        }
      ],
      "stateMutability": "nonpayable",
      "type": "function"
    }
  ],
  "bytecode": "0x608060405234801561001057600080fd5b5061106a806100206000396000f3fe608060405234801561001057600080fd5b50600436106100625760003560e01c806322ce30bf1461006757806330532362146100855780633d1c2273146100b55780633f9b250a146100d3578063922635d814610107578063f2d893e41461013b575b600080fd5b61006f61016b565b60405161007c9190610891565b60405180910390f35b61009f600480360381019061009a9190610a06565b610175565b6040516100ac9190610891565b60405180910390f35b6100bd6102d7565b6040516100ca9190610891565b60405180910390f35b6100ed60048036038101906100e89190610ad9565b6102e1565b6040516100fe959493929190610bc6565b60405180910390f35b610121600480360381019061011c9190610ad9565b610305565b604051610132959493929190610bc6565b60405180910390f35b61015560048036038101906101509190610a06565b6105c2565b6040516101629190610891565b60405180910390f35b6000600154905090565b60006001600081548092919061018a90610c5d565b91905055506040518060a001604052808581526020018481526020018381526020013373ffffffffffffffffffffffffffffffffffffffff16815260200142815250600080600154815260200190815260200160002060008201518160000190816101f59190610eb1565b50602082015181600101908161020b9190610eb1565b5060408201518160020190816102219190610eb1565b5060608201518160030160006101000a81548173ffffffffffffffffffffffffffffffffffffffff021916908373ffffffffffffffffffffffffffffffffffffffff160217905550608082015181600401559050503373ffffffffffffffffffffffffffffffffffffffff166001547f1a963893abca512d4509f228c9acd4b12dc3c62d22cb6603d7ba3b41300d529c8686426040516102c393929190610f83565b60405180910390a360015490509392505050565b6000600154905090565b60608060606000806102f286610305565b9450945094509450945091939590929450565b606080606060008060008611801561031f57506001548611155b61035e576040517f08c379a000000000000000000000000000000000000000000000000000000000815260040161035590611014565b60405180910390fd5b60008060008881526020019081526020016000206040518060a001604052908160008201805461038d90610cd4565b80601f01602080910402602001604051908101604052809291908181526020018280546103b990610cd4565b80156104065780601f106103db57610100808354040283529160200191610406565b820191906000526020600020905b8154815290600101906020018083116103e957829003601f168201915b5050505050815260200160018201805461041f90610cd4565b80601f016020809104026020016040519081016040528092919081815260200182805461044b90610cd4565b80156104985780601f1061046d57610100808354040283529160200191610498565b820191906000526020600020905b81548152906001019060200180831161047b57829003601f168201915b505050505081526020016002820180546104b190610cd4565b80601f01602080910402602001604051908101604052809291908181526020018280546104dd90610cd4565b801561052a5780601f106104ff5761010080835404028352916020019161052a565b820191906000526020600020905b81548152906001019060200180831161050d57829003601f168201915b505050505081526020016003820160009054906101000a900473ffffffffffffffffffffffffffffffffffffffff1673ffffffffffffffffffffffffffffffffffffffff1673ffffffffffffffffffffffffffffffffffffffff168152602001600482015481525050905080600001518160200151826040015183606001518460800151955095509550955095505091939590929450565b6000806105d0858585610175565b905060008060008381526020019081526020016000206040518060a001604052908160008201805461060190610cd4565b80601f016020809104026020016040519081016040528092919081815260200182805461062d90610cd4565b801561067a5780601f1061064f5761010080835404028352916020019161067a565b820191906000526020600020905b81548152906001019060200180831161065d57829003601f168201915b5050505050815260200160018201805461069390610cd4565b80601f01602080910402602001604051908101604052809291908181526020018280546106bf90610cd4565b801561070c5780601f106106e15761010080835404028352916020019161070c565b820191906000526020600020905b8154815290600101906020018083116106ef57829003601f168201915b5050505050815260200160028201805461072590610cd4565b80601f016020809104026020016040519081016040528092919081815260200182805461075190610cd4565b801561079e5780601f106107735761010080835404028352916020019161079e565b820191906000526020600020905b81548152906001019060200180831161078157829003601f168201915b505050505081526020016003820160009054906101000a900473ffffffffffffffffffffffffffffffffffffffff1673ffffffffffffffffffffffffffffffffffffffff1673ffffffffffffffffffffffffffffffffffffffff1681526020016004820154815250509050806060015173ffffffffffffffffffffffffffffffffffffffff16827ff649d7d9d2f86602b811728f937e408ca2dc52f7ac5bf46acaefbef486f1415d83600001518460200151856080015160405161086493929190610f83565b60405180910390a381925050509392505050565b6000819050919050565b61088b81610878565b82525050565b60006020820190506108a66000830184610882565b92915050565b6000604051905090565b600080fd5b600080fd5b600080fd5b600080fd5b6000601f19601f8301169050919050565b7f4e487b7100000000000000000000000000000000000000000000000000000000600052604160045260246000fd5b610913826108ca565b810181811067ffffffffffffffff82111715610932576109316108db565b5b80604052505050565b60006109456108ac565b9050610951828261090a565b919050565b600067ffffffffffffffff821115610971576109706108db565b5b61097a826108ca565b9050602081019050919050565b82818337600083830152505050565b60006109a96109a484610956565b61093b565b9050828152602081018484840111156109c5576109c46108c5565b5b6109d0848285610987565b509392505050565b600082601f8301126109ed576109ec6108c0565b5b81356109fd848260208601610996565b91505092915050565b600080600060608486031215610a1f57610a1e6108b6565b5b600084013567ffffffffffffffff811115610a3d57610a3c6108bb565b5b610a49868287016109d8565b935050602084013567ffffffffffffffff811115610a6a57610a696108bb565b5b610a76868287016109d8565b925050604084013567ffffffffffffffff811115610a9757610a966108bb565b5b610aa3868287016109d8565b9150509250925092565b610ab681610878565b8114610ac157600080fd5b50565b600081359050610ad381610aad565b92915050565b600060208284031215610aef57610aee6108b6565b5b6000610afd84828501610ac4565b91505092915050565b600081519050919050565b600082825260208201905092915050565b60005b83811015610b40578082015181840152602081019050610b25565b60008484015250505050565b6000610b5782610b06565b610b618185610b11565b9350610b71818560208601610b22565b610b7a816108ca565b840191505092915050565b600073ffffffffffffffffffffffffffffffffffffffff82169050919050565b6000610bb082610b85565b9050919050565b610bc081610ba5565b82525050565b600060a0820190508181036000830152610be08188610b4c565b90508181036020830152610bf48187610b4c565b90508181036040830152610c088186610b4c565b9050610c176060830185610bb7565b610c246080830184610882565b9695505050505050565b7f4e487b7100000000000000000000000000000000000000000000000000000000600052601160045260246000fd5b6000610c6882610878565b91507fffffffffffffffffffffffffffffffffffffffffffffffffffffffffffffffff8203610c9a57610c99610c2e565b5b600182019050919050565b7f4e487b7100000000000000000000000000000000000000000000000000000000600052602260045260246000fd5b60006002820490506001821680610cec57607f821691505b602082108103610cff57610cfe610ca5565b5b50919050565b60008190508160005260206000209050919050565b60006020601f8301049050919050565b600082821b905092915050565b600060088302610d677fffffffffffffffffffffffffffffffffffffffffffffffffffffffffffffffff82610d2a565b610d718683610d2a565b95508019841693508086168417925050509392505050565b6000819050919050565b6000610dae610da9610da484610878565b610d89565b610878565b9050919050565b6000819050919050565b610dc883610d93565b610ddc610dd482610db5565b848454610d37565b825550505050565b600090565b610df1610de4565b610dfc818484610dbf565b505050565b5b81811015610e2057610e15600082610de9565b600181019050610e02565b5050565b601f821115610e6557610e3681610d05565b610e3f84610d1a565b81016020851015610e4e578190505b610e62610e5a85610d1a565b830182610e01565b50505b505050565b600082821c905092915050565b6000610e8860001984600802610e6a565b1980831691505092915050565b6000610ea18383610e77565b9150826002028217905092915050565b610eba82610b06565b67ffffffffffffffff811115610ed357610ed26108db565b5b610edd8254610cd4565b610ee8828285610e24565b600060209050601f831160018114610f1b5760008415610f09578287015190505b610f138582610e95565b865550610f7b565b601f198416610f2986610d05565b60005b82811015610f5157848901518255600182019150602085019450602081019050610f2c565b86831015610f6e5784890151610f6a601f891682610e77565b8355505b6001600288020188555050505b505050505050565b60006060820190508181036000830152610f9d8186610b4c565b90508181036020830152610fb18185610b4c565b9050610fc06040830184610882565b949350505050565b7f496e76616c696420616374697669747920494400000000000000000000000000600082015250565b6000610ffe601383610b11565b915061100982610fc8565b602082019050919050565b6000602082019050818103600083015261102d81610ff1565b905091905056fea2646970667358221220b43735b580df1b383a24866c2bfa72328ea9390db2d0ed16b18499422b0fff2f64736f6c63430008130033",
  "linkReferences": {},
  "deployedLinkReferences": {},
  "immutableReferences": {},
  "inputSourceName": "project/contracts/DocumentRegistry.sol",
  "buildInfoId": "solc-0_8_19-fb540cb1cc8d64dbdfddbb2a13ed0d107c5c82f6"
}