{
  "_format": "hh-sol-artifact-1",
  "contractName": "DocumentRegistry",
  "sourceName": "contracts/DocumentRegistry.sol",
  "abi": [
    {
      "anonymous": false,
      "inputs": [
        {
          "indexed": true,
          "internalType": "uint256",
          "name": "activityId",
          "type": "uint256"
        },
        {
          "indexed": false,
          "internalType": "string",
          "name": "activityType",
          "type": "string"
        },
        {
          "indexed": false,
          "internalType": "string",
          "name": "docHash",
          "type": "string"
        },
        {
          "indexed": true,
          "internalType": "address",
          "name": "uploader",
          "type": "address"
        },
        {
          "indexed": false,
          "internalType": "uint256",
          "name": "timestamp",
          "type": "uint256"
        }
      ],
      "name": "ActivityStored",
      "type": "event"
    },
    {
      "anonymous": false,
      "inputs": [
        {
          "indexed": true,
          "internalType": "uint256",
          "name": "docId",
          "type": "uint256"
        },
        {
          "indexed": false,
          "internalType": "string",
          "name": "docType",
          "type": "string"
        },
        {
          "indexed": false,
          "internalType": "string",
          "name": "docHash",
          "type": "string"
        },
        {
          "indexed": true,
          "internalType": "address",
          "name": "uploader",
          "type": "address"
        },
        {
          "indexed": false,
          "internalType": "uint256",
          "name": "timestamp",
          "type": "uint256"
        }
      ],
      "name": "DocumentStored",
      "type": "event"
    },
    {
      "inputs": [
        {
          "internalType": "uint256",
          "name": "_activityId",
          "type": "uint256"
        }
      ],
      "name": "getActivity",
      "outputs": [
        {
          "internalType": "string",
          "name": "activityType",
          "type": "string"
        },
        {
          "internalType": "string",
          "name": "docHash",
          "type": "string"
        },
        {
          "internalType": "string",
          "name": "metadata",
          "type": "string"
        },
        {
          "internalType": "address",
          "name": "uploader",
          "type": "address"
        },
        {
          "internalType": "uint256",
          "name": "timestamp",
          "type": "uint256"
        }
      ],
      "stateMutability": "view",
      "type": "function"
    },
    {
      "inputs": [],
      "name": "getActivityCount",
      "outputs": [
        {
          "internalType": "uint256",
          "name": "",
          "type": "uint256"
        }
      ],
      "stateMutability": "view",
      "type": "function"
    },
    {
      "inputs": [
        {
          "internalType": "uint256",
          "name": "_docId",
          "type": "uint256"
        }
      ],
      "name": "getDocument",
      "outputs": [
        {
          "internalType": "string",
          "name": "docType",
          "type": "string"
        },
        {
          "internalType": "string",
          "name": "docHash",
          "type": "string"
        },
        {
          "internalType": "string",
          "name": "metadata",
          "type": "string"
        },
        {
          "internalType": "address",
          "name": "uploader",
          "type": "address"
        },
        {
          "internalType": "uint256",
          "name": "timestamp",
          "type": "uint256"
        }
      ],
      "stateMutability": "view",
      "type": "function"
    },
    {
      "inputs": [],
      "name": "getDocumentCount",
      "outputs": [
        {
          "internalType": "uint256",
          "name": "",
          "type": "uint256"
        }
      ],
      "stateMutability": "view",
      "type": "function"
    },
    {
      "inputs": [
        {
          "internalType": "string",
          "name": "_docHash",
          "type": "string"
        },
        {
          "internalType": "string",
          "name": "_metadata",
          "type": "string"
        }
      ],
      "name": "recordImplementation",
      "outputs": [
        {
          "internalType": "uint256",
          "name": "",
          "type": "uint256"
        }
      ],
      "stateMutability": "nonpayable",
      "type": "function"
    },
    {
      "inputs": [
        {
          "internalType": "string",
          "name": "_docHash",
          "type": "string"
        },
        {
          "internalType": "string",
          "name": "_metadata",
          "type": "string"
        }
      ],
      "name": "recordMonitoring",
      "outputs": [
        {
          "internalType": "uint256",
          "name": "",
          "type": "uint256"
        }
      ],
      "stateMutability": "nonpayable",
      "type": "function"
    },
    {
      "inputs": [
        {
          "internalType": "string",
          "name": "_docHash",
          "type": "string"
        },
        {
          "internalType": "string",
          "name": "_metadata",
          "type": "string"
        }
      ],
      "name": "recordPlanning",
      "outputs": [
        {
          "internalType": "uint256",
          "name": "",
          "type": "uint256"
        }
      ],
      "stateMutability": "nonpayable",
      "type": "function"
    },
    {
      "inputs": [
        {
          "internalType": "string",
          "name": "_docHash",
          "type": "string"
        },
        {
          "internalType": "string",
          "name": "_metadata",
          "type": "string"
        }
      ],
      "name": "recordVerification",
      "outputs": [
        {
          "internalType": "uint256",
          "name": "",
          "type": "uint256"
        }
      ],
      "stateMutability": "nonpayable",
      "type": "function"
    },
    {
      "inputs": [
        {
          "internalType": "string",
          "name": "_activityType",
          "type": "string"
        },
        {
          "internalType": "string",
          "name": "_docHash",
          "type": "string"
        },
        {
          "internalType": "string",
          "name": "_metadata",
          "type": "string"
        }
      ],
      "name": "storeActivity",
      "outputs": [
        {
          "internalType": "uint256",
          "name": "",
          "type": "uint256"
        }
      ],
      "stateMutability": "nonpayable",
      "type": "function"
    },
    {
      "inputs": [
        {
          "internalType": "string",
          "name": "_docType",
          "type": "string"
        },
        {
          "internalType": "string",
          "name": "_docHash",
          "type": "string"
        },
        {
          "internalType": "string",
          "name": "_metadata",
          "type": "string"
        }
      ],
      "name": "storeDocument",
      "outputs": [
        {
          "internalType": "uint256",
          "name": "",
          "type": "uint256"
        }
      ],
      "stateMutability": "nonpayable",
      "type": "function"
    }
  ],
  "bytecode": "0x608060405234801561001057600080fd5b5061131c806100206000396000f3fe608060405234801561001057600080fd5b506004361061009e5760003560e01c8063839ab29911610066578063839ab299146101735780638a723575146101a3578063922635d8146101d3578063bdb4214114610207578063f2d893e4146102375761009e565b80631727fddb146100a357806322ce30bf146100d357806330532362146100f15780633d1c2273146101215780633f9b250a1461013f575b600080fd5b6100bd60048036038101906100b89190610c0c565b610267565b6040516100ca9190610c9d565b60405180910390f35b6100db6102b1565b6040516100e89190610c9d565b60405180910390f35b61010b60048036038101906101069190610cb8565b6102bb565b6040516101189190610c9d565b60405180910390f35b6101296102d1565b6040516101369190610c9d565b60405180910390f35b61015960048036038101906101549190610d8b565b6102db565b60405161016a959493929190610e78565b60405180910390f35b61018d60048036038101906101889190610c0c565b6102ff565b60405161019a9190610c9d565b60405180910390f35b6101bd60048036038101906101b89190610c0c565b610349565b6040516101ca9190610c9d565b60405180910390f35b6101ed60048036038101906101e89190610d8b565b610393565b6040516101fe959493929190610e78565b60405180910390f35b610221600480360381019061021c9190610c0c565b610650565b60405161022e9190610c9d565b60405180910390f35b610251600480360381019061024c9190610cb8565b61069a565b60405161025e9190610c9d565b60405180910390f35b60006102a96040518060400160405280600881526020017f506c616e6e696e670000000000000000000000000000000000000000000000008152508484610950565b905092915050565b6000600154905090565b60006102c8848484610950565b90509392505050565b6000600154905090565b60608060606000806102ec86610393565b9450945094509450945091939590929450565b60006103416040518060400160405280600a81526020017f4d6f6e69746f72696e67000000000000000000000000000000000000000000008152508484610950565b905092915050565b600061038b6040518060400160405280600c81526020017f566572696669636174696f6e00000000000000000000000000000000000000008152508484610950565b905092915050565b60608060606000806000861180156103ad57506001548611155b6103ec576040517f08c379a00000000000000000000000000000000000000000000000000000000081526004016103e390610f2c565b60405180910390fd5b60008060008881526020019081526020016000206040518060a001604052908160008201805461041b90610f7b565b80601f016020809104026020016040519081016040528092919081815260200182805461044790610f7b565b80156104945780601f1061046957610100808354040283529160200191610494565b820191906000526020600020905b81548152906001019060200180831161047757829003601f168201915b505050505081526020016001820180546104ad90610f7b565b80601f01602080910402602001604051908101604052809291908181526020018280546104d990610f7b565b80156105265780601f106104fb57610100808354040283529160200191610526565b820191906000526020600020905b81548152906001019060200180831161050957829003601f168201915b5050505050815260200160028201805461053f90610f7b565b80601f016020809104026020016040519081016040528092919081815260200182805461056b90610f7b565b80156105b85780601f1061058d576101008083540402835291602001916105b8565b820191906000526020600020905b81548152906001019060200180831161059b57829003601f168201915b505050505081526020016003820160009054906101000a900473ffffffffffffffffffffffffffffffffffffffff1673ffffffffffffffffffffffffffffffffffffffff1673ffffffffffffffffffffffffffffffffffffffff168152602001600482015481525050905080600001518160200151826040015183606001518460800151955095509550955095505091939590929450565b60006106926040518060400160405280600e81526020017f496d706c656d656e746174696f6e0000000000000000000000000000000000008152508484610950565b905092915050565b6000806106a88585856102bb565b905060008060008381526020019081526020016000206040518060a00160405290816000820180546106d990610f7b565b80601f016020809104026020016040519081016040528092919081815260200182805461070590610f7b565b80156107525780601f1061072757610100808354040283529160200191610752565b820191906000526020600020905b81548152906001019060200180831161073557829003601f168201915b5050505050815260200160018201805461076b90610f7b565b80601f016020809104026020016040519081016040528092919081815260200182805461079790610f7b565b80156107e45780601f106107b9576101008083540402835291602001916107e4565b820191906000526020600020905b8154815290600101906020018083116107c757829003601f168201915b505050505081526020016002820180546107fd90610f7b565b80601f016020809104026020016040519081016040528092919081815260200182805461082990610f7b565b80156108765780601f1061084b57610100808354040283529160200191610876565b820191906000526020600020905b81548152906001019060200180831161085957829003601f168201915b505050505081526020016003820160009054906101000a900473ffffffffffffffffffffffffffffffffffffffff1673ffffffffffffffffffffffffffffffffffffffff1673ffffffffffffffffffffffffffffffffffffffff1681526020016004820154815250509050806060015173ffffffffffffffffffffffffffffffffffffffff16827ff649d7d9d2f86602b811728f937e408ca2dc52f7ac5bf46acaefbef486f1415d83600001518460200151856080015160405161093c93929190610fac565b60405180910390a381925050509392505050565b60006001600081548092919061096590611020565b91905055506040518060a001604052808581526020018481526020018381526020013373ffffffffffffffffffffffffffffffffffffffff16815260200142815250600080600154815260200190815260200160002060008201518160000190816109d09190611214565b5060208201518160010190816109e69190611214565b5060408201518160020190816109fc9190611214565b5060608201518160030160006101000a81548173ffffffffffffffffffffffffffffffffffffffff021916908373ffffffffffffffffffffffffffffffffffffffff160217905550608082015181600401559050503373ffffffffffffffffffffffffffffffffffffffff166001547f1a963893abca512d4509f228c9acd4b12dc3c62d22cb6603d7ba3b41300d529c868642604051610a9e93929190610fac565b60405180910390a360015490509392505050565b6000604051905090565b600080fd5b600080fd5b600080fd5b600080fd5b6000601f19601f8301169050919050565b7f4e487b7100000000000000000000000000000000000000000000000000000000600052604160045260246000fd5b610b1982610ad0565b810181811067ffffffffffffffff82111715610b3857610b37610ae1565b5b80604052505050565b6000610b4b610ab2565b9050610b578282610b10565b919050565b600067ffffffffffffffff821115610b7757610b76610ae1565b5b610b8082610ad0565b9050602081019050919050565b82818337600083830152505050565b6000610baf610baa84610b5c565b610b41565b905082815260208101848484011115610bcb57610bca610acb565b5b610bd6848285610b8d565b509392505050565b600082601f830112610bf357610bf2610ac6565b5b8135610c03848260208601610b9c565b91505092915050565b60008060408385031215610c2357610c22610abc565b5b600083013567ffffffffffffffff811115610c4157610c40610ac1565b5b610c4d85828601610bde565b925050602083013567ffffffffffffffff811115610c6e57610c6d610ac1565b5b610c7a85828601610bde565b9150509250929050565b6000819050919050565b610c9781610c84565b82525050565b6000602082019050610cb26000830184610c8e565b92915050565b600080600060608486031215610cd157610cd0610abc565b5b600084013567ffffffffffffffff811115610cef57610cee610ac1565b5b610cfb86828701610bde565b935050602084013567ffffffffffffffff811115610d1c57610d1b610ac1565b5b610d2886828701610bde565b925050604084013567ffffffffffffffff811115610d4957610d48610ac1565b5b610d5586828701610bde565b9150509250925092565b610d6881610c84565b8114610d7357600080fd5b50565b600081359050610d8581610d5f565b92915050565b600060208284031215610da157610da0610abc565b5b6000610daf84828501610d76565b91505092915050565b600081519050919050565b600082825260208201905092915050565b60005b83811015610df2578082015181840152602081019050610dd7565b60008484015250505050565b6000610e0982610db8565b610e138185610dc3565b9350610e23818560208601610dd4565b610e2c81610ad0565b840191505092915050565b600073ffffffffffffffffffffffffffffffffffffffff82169050919050565b6000610e6282610e37565b9050919050565b610e7281610e57565b82525050565b600060a0820190508181036000830152610e928188610dfe565b90508181036020830152610ea68187610dfe565b90508181036040830152610eba8186610dfe565b9050610ec96060830185610e69565b610ed66080830184610c8e565b9695505050505050565b7f496e76616c696420616374697669747920494400000000000000000000000000600082015250565b6000610f16601383610dc3565b9150610f2182610ee0565b602082019050919050565b60006020820190508181036000830152610f4581610f09565b9050919050565b7f4e487b7100000000000000000000000000000000000000000000000000000000600052602260045260246000fd5b60006002820490506001821680610f9357607f821691505b602082108103610fa657610fa5610f4c565b5b50919050565b60006060820190508181036000830152610fc68186610dfe565b90508181036020830152610fda8185610dfe565b9050610fe96040830184610c8e565b949350505050565b7f4e487b7100000000000000000000000000000000000000000000000000000000600052601160045260246000fd5b600061102b82610c84565b91507fffffffffffffffffffffffffffffffffffffffffffffffffffffffffffffffff820361105d5761105c610ff1565b5b600182019050919050565b60008190508160005260206000209050919050565b60006020601f8301049050919050565b600082821b905092915050565b6000600883026110ca7fffffffffffffffffffffffffffffffffffffffffffffffffffffffffffffffff8261108d565b6110d4868361108d565b95508019841693508086168417925050509392505050565b6000819050919050565b600061111161110c61110784610c84565b6110ec565b610c84565b9050919050565b6000819050919050565b61112b836110f6565b61113f61113782611118565b84845461109a565b825550505050565b600090565b611154611147565b61115f818484611122565b505050565b5b818110156111835761117860008261114c565b600181019050611165565b5050565b601f8211156111c85761119981611068565b6111a28461107d565b810160208510156111b1578190505b6111c56111bd8561107d565b830182611164565b50505b505050565b600082821c905092915050565b60006111eb600019846008026111cd565b1980831691505092915050565b600061120483836111da565b9150826002028217905092915050565b61121d82610db8565b67ffffffffffffffff81111561123657611235610ae1565b5b6112408254610f7b565b61124b828285611187565b600060209050601f83116001811461127e576000841561126c578287015190505b61127685826111f8565b8655506112de565b601f19841661128c86611068565b60005b828110156112b45784890151825560018201915060208501945060208101905061128f565b868310156112d157848901516112cd601f8916826111da565b8355505b6001600288020188555050505b50505050505056fea2646970667358221220cb6757777798b0fb48cfea067ff7abed8a77f58a51955513299b495fbabeb60364736f6c63430008130033",
  "linkReferences": {},
  "deployedLinkReferences": {}
}